{
  "_format": "hh-sol-artifact-1",
  "contractName": "KwolfNFT",
  "sourceName": "contracts/KwolfNFT.sol",
  "abi": [
    {
      "inputs": [],
      "stateMutability": "nonpayable",
      "type": "constructor"
    },
    {
      "inputs": [
        {
          "internalType": "address",
          "name": "sender",
          "type": "address"
        },
        {
          "internalType": "uint256",
          "name": "tokenId",
          "type": "uint256"
        },
        {
          "internalType": "address",
          "name": "owner",
          "type": "address"
        }
      ],
      "name": "ERC721IncorrectOwner",
      "type": "error"
    },
    {
      "inputs": [
        {
          "internalType": "address",
          "name": "operator",
          "type": "address"
        },
        {
          "internalType": "uint256",
          "name": "tokenId",
          "type": "uint256"
        }
      ],
      "name": "ERC721InsufficientApproval",
      "type": "error"
    },
    {
      "inputs": [
        {
          "internalType": "address",
          "name": "approver",
          "type": "address"
        }
      ],
      "name": "ERC721InvalidApprover",
      "type": "error"
    },
    {
      "inputs": [
        {
          "internalType": "address",
          "name": "operator",
          "type": "address"
        }
      ],
      "name": "ERC721InvalidOperator",
      "type": "error"
    },
    {
      "inputs": [
        {
          "internalType": "address",
          "name": "owner",
          "type": "address"
        }
      ],
      "name": "ERC721InvalidOwner",
      "type": "error"
    },
    {
      "inputs": [
        {
          "internalType": "address",
          "name": "receiver",
          "type": "address"
        }
      ],
      "name": "ERC721InvalidReceiver",
      "type": "error"
    },
    {
      "inputs": [
        {
          "internalType": "address",
          "name": "sender",
          "type": "address"
        }
      ],
      "name": "ERC721InvalidSender",
      "type": "error"
    },
    {
      "inputs": [
        {
          "internalType": "uint256",
          "name": "tokenId",
          "type": "uint256"
        }
      ],
      "name": "ERC721NonexistentToken",
      "type": "error"
    },
    {
      "inputs": [
        {
          "internalType": "address",
          "name": "owner",
          "type": "address"
        }
      ],
      "name": "OwnableInvalidOwner",
      "type": "error"
    },
    {
      "inputs": [
        {
          "internalType": "address",
          "name": "account",
          "type": "address"
        }
      ],
      "name": "OwnableUnauthorizedAccount",
      "type": "error"
    },
    {
      "anonymous": false,
      "inputs": [
        {
          "indexed": true,
          "internalType": "address",
          "name": "owner",
          "type": "address"
        },
        {
          "indexed": true,
          "internalType": "address",
          "name": "approved",
          "type": "address"
        },
        {
          "indexed": true,
          "internalType": "uint256",
          "name": "tokenId",
          "type": "uint256"
        }
      ],
      "name": "Approval",
      "type": "event"
    },
    {
      "anonymous": false,
      "inputs": [
        {
          "indexed": true,
          "internalType": "address",
          "name": "owner",
          "type": "address"
        },
        {
          "indexed": true,
          "internalType": "address",
          "name": "operator",
          "type": "address"
        },
        {
          "indexed": false,
          "internalType": "bool",
          "name": "approved",
          "type": "bool"
        }
      ],
      "name": "ApprovalForAll",
      "type": "event"
    },
    {
      "anonymous": false,
      "inputs": [
        {
          "indexed": false,
          "internalType": "uint256",
          "name": "_fromTokenId",
          "type": "uint256"
        },
        {
          "indexed": false,
          "internalType": "uint256",
          "name": "_toTokenId",
          "type": "uint256"
        }
      ],
      "name": "BatchMetadataUpdate",
      "type": "event"
    },
    {
      "anonymous": false,
      "inputs": [
        {
          "indexed": false,
          "internalType": "uint256",
          "name": "_tokenId",
          "type": "uint256"
        }
      ],
      "name": "MetadataUpdate",
      "type": "event"
    },
    {
      "anonymous": false,
      "inputs": [
        {
          "indexed": true,
          "internalType": "address",
          "name": "previousOwner",
          "type": "address"
        },
        {
          "indexed": true,
          "internalType": "address",
          "name": "newOwner",
          "type": "address"
        }
      ],
      "name": "OwnershipTransferred",
      "type": "event"
    },
    {
      "anonymous": false,
      "inputs": [
        {
          "indexed": true,
          "internalType": "address",
          "name": "from",
          "type": "address"
        },
        {
          "indexed": true,
          "internalType": "address",
          "name": "to",
          "type": "address"
        },
        {
          "indexed": true,
          "internalType": "uint256",
          "name": "tokenId",
          "type": "uint256"
        }
      ],
      "name": "Transfer",
      "type": "event"
    },
    {
      "inputs": [
        {
          "internalType": "address",
          "name": "to",
          "type": "address"
        },
        {
          "internalType": "uint256",
          "name": "tokenId",
          "type": "uint256"
        }
      ],
      "name": "approve",
      "outputs": [],
      "stateMutability": "nonpayable",
      "type": "function"
    },
    {
      "inputs": [
        {
          "internalType": "address",
          "name": "owner",
          "type": "address"
        }
      ],
      "name": "balanceOf",
      "outputs": [
        {
          "internalType": "uint256",
          "name": "",
          "type": "uint256"
        }
      ],
      "stateMutability": "view",
      "type": "function"
    },
    {
      "inputs": [
        {
          "internalType": "uint256",
          "name": "tokenId",
          "type": "uint256"
        }
      ],
      "name": "getApproved",
      "outputs": [
        {
          "internalType": "address",
          "name": "",
          "type": "address"
        }
      ],
      "stateMutability": "view",
      "type": "function"
    },
    {
      "inputs": [
        {
          "internalType": "address",
          "name": "owner",
          "type": "address"
        },
        {
          "internalType": "address",
          "name": "operator",
          "type": "address"
        }
      ],
      "name": "isApprovedForAll",
      "outputs": [
        {
          "internalType": "bool",
          "name": "",
          "type": "bool"
        }
      ],
      "stateMutability": "view",
      "type": "function"
    },
    {
      "inputs": [
        {
          "internalType": "address",
          "name": "_to",
          "type": "address"
        },
        {
          "internalType": "string",
          "name": "_uri",
          "type": "string"
        }
      ],
      "name": "mint",
      "outputs": [
        {
          "internalType": "uint256",
          "name": "",
          "type": "uint256"
        }
      ],
      "stateMutability": "nonpayable",
      "type": "function"
    },
    {
      "inputs": [],
      "name": "name",
      "outputs": [
        {
          "internalType": "string",
          "name": "",
          "type": "string"
        }
      ],
      "stateMutability": "view",
      "type": "function"
    },
    {
      "inputs": [],
      "name": "owner",
      "outputs": [
        {
          "internalType": "address",
          "name": "",
          "type": "address"
        }
      ],
      "stateMutability": "view",
      "type": "function"
    },
    {
      "inputs": [
        {
          "internalType": "uint256",
          "name": "tokenId",
          "type": "uint256"
        }
      ],
      "name": "ownerOf",
      "outputs": [
        {
          "internalType": "address",
          "name": "",
          "type": "address"
        }
      ],
      "stateMutability": "view",
      "type": "function"
    },
    {
      "inputs": [],
      "name": "renounceOwnership",
      "outputs": [],
      "stateMutability": "nonpayable",
      "type": "function"
    },
    {
      "inputs": [
        {
          "internalType": "address",
          "name": "from",
          "type": "address"
        },
        {
          "internalType": "address",
          "name": "to",
          "type": "address"
        },
        {
          "internalType": "uint256",
          "name": "tokenId",
          "type": "uint256"
        }
      ],
      "name": "safeTransferFrom",
      "outputs": [],
      "stateMutability": "nonpayable",
      "type": "function"
    },
    {
      "inputs": [
        {
          "internalType": "address",
          "name": "from",
          "type": "address"
        },
        {
          "internalType": "address",
          "name": "to",
          "type": "address"
        },
        {
          "internalType": "uint256",
          "name": "tokenId",
          "type": "uint256"
        },
        {
          "internalType": "bytes",
          "name": "data",
          "type": "bytes"
        }
      ],
      "name": "safeTransferFrom",
      "outputs": [],
      "stateMutability": "nonpayable",
      "type": "function"
    },
    {
      "inputs": [
        {
          "internalType": "address",
          "name": "operator",
          "type": "address"
        },
        {
          "internalType": "bool",
          "name": "approved",
          "type": "bool"
        }
      ],
      "name": "setApprovalForAll",
      "outputs": [],
      "stateMutability": "nonpayable",
      "type": "function"
    },
    {
      "inputs": [
        {
          "internalType": "bytes4",
          "name": "interfaceId",
          "type": "bytes4"
        }
      ],
      "name": "supportsInterface",
      "outputs": [
        {
          "internalType": "bool",
          "name": "",
          "type": "bool"
        }
      ],
      "stateMutability": "view",
      "type": "function"
    },
    {
      "inputs": [],
      "name": "symbol",
      "outputs": [
        {
          "internalType": "string",
          "name": "",
          "type": "string"
        }
      ],
      "stateMutability": "view",
      "type": "function"
    },
    {
      "inputs": [
        {
          "internalType": "uint256",
          "name": "tokenId",
          "type": "uint256"
        }
      ],
      "name": "tokenURI",
      "outputs": [
        {
          "internalType": "string",
          "name": "",
          "type": "string"
        }
      ],
      "stateMutability": "view",
      "type": "function"
    },
    {
      "inputs": [
        {
          "internalType": "address",
          "name": "from",
          "type": "address"
        },
        {
          "internalType": "address",
          "name": "to",
          "type": "address"
        },
        {
          "internalType": "uint256",
          "name": "tokenId",
          "type": "uint256"
        }
      ],
      "name": "transferFrom",
      "outputs": [],
      "stateMutability": "nonpayable",
      "type": "function"
    },
    {
      "inputs": [
        {
          "internalType": "address",
          "name": "newOwner",
          "type": "address"
        }
      ],
      "name": "transferOwnership",
      "outputs": [],
      "stateMutability": "nonpayable",
      "type": "function"
    }
  ],
  "bytecode": "0x60806040523480156200001157600080fd5b50336040518060400160405280600881526020017f4b776f6c664e46540000000000000000000000000000000000000000000000008152506040518060400160405280600481526020017f6b4e465400000000000000000000000000000000000000000000000000000000815250816000908162000090919062000472565b508060019081620000a2919062000472565b505050600073ffffffffffffffffffffffffffffffffffffffff168173ffffffffffffffffffffffffffffffffffffffff16036200011a5760006040517f1e4fbdf70000000000000000000000000000000000000000000000000000000081526004016200011191906200059e565b60405180910390fd5b6200012b816200013260201b60201c565b50620005bb565b6000600760009054906101000a900473ffffffffffffffffffffffffffffffffffffffff16905081600760006101000a81548173ffffffffffffffffffffffffffffffffffffffff021916908373ffffffffffffffffffffffffffffffffffffffff1602179055508173ffffffffffffffffffffffffffffffffffffffff168173ffffffffffffffffffffffffffffffffffffffff167f8be0079c531659141344cd1fd0a4f28419497f9722a3daafe3b4186f6b6457e060405160405180910390a35050565b600081519050919050565b7f4e487b7100000000000000000000000000000000000000000000000000000000600052604160045260246000fd5b7f4e487b7100000000000000000000000000000000000000000000000000000000600052602260045260246000fd5b600060028204905060018216806200027a57607f821691505b60208210810362000290576200028f62000232565b5b50919050565b60008190508160005260206000209050919050565b60006020601f8301049050919050565b600082821b905092915050565b600060088302620002fa7fffffffffffffffffffffffffffffffffffffffffffffffffffffffffffffffff82620002bb565b620003068683620002bb565b95508019841693508086168417925050509392505050565b6000819050919050565b6000819050919050565b6000620003536200034d62000347846200031e565b62000328565b6200031e565b9050919050565b6000819050919050565b6200036f8362000332565b620003876200037e826200035a565b848454620002c8565b825550505050565b600090565b6200039e6200038f565b620003ab81848462000364565b505050565b5b81811015620003d357620003c760008262000394565b600181019050620003b1565b5050565b601f8211156200042257620003ec8162000296565b620003f784620002ab565b8101602085101562000407578190505b6200041f6200041685620002ab565b830182620003b0565b50505b505050565b600082821c905092915050565b6000620004476000198460080262000427565b1980831691505092915050565b600062000462838362000434565b9150826002028217905092915050565b6200047d82620001f8565b67ffffffffffffffff81111562000499576200049862000203565b5b620004a5825462000261565b620004b2828285620003d7565b600060209050601f831160018114620004ea5760008415620004d5578287015190505b620004e1858262000454565b86555062000551565b601f198416620004fa8662000296565b60005b828110156200052457848901518255600182019150602085019450602081019050620004fd565b8683101562000544578489015162000540601f89168262000434565b8355505b6001600288020188555050505b505050505050565b600073ffffffffffffffffffffffffffffffffffffffff82169050919050565b6000620005868262000559565b9050919050565b620005988162000579565b82525050565b6000602082019050620005b560008301846200058d565b92915050565b61264380620005cb6000396000f3fe608060405234801561001057600080fd5b506004361061010b5760003560e01c8063715018a6116100a2578063b88d4fde11610071578063b88d4fde146102a4578063c87b56dd146102c0578063d0def521146102f0578063e985e9c514610320578063f2fde38b146103505761010b565b8063715018a6146102425780638da5cb5b1461024c57806395d89b411461026a578063a22cb465146102885761010b565b806323b872dd116100de57806323b872dd146101aa57806342842e0e146101c65780636352211e146101e257806370a08231146102125761010b565b806301ffc9a71461011057806306fdde0314610140578063081812fc1461015e578063095ea7b31461018e575b600080fd5b61012a60048036038101906101259190611ad8565b61036c565b6040516101379190611b20565b60405180910390f35b6101486103cd565b6040516101559190611bcb565b60405180910390f35b61017860048036038101906101739190611c23565b61045f565b6040516101859190611c91565b60405180910390f35b6101a860048036038101906101a39190611cd8565b61047b565b005b6101c460048036038101906101bf9190611d18565b610491565b005b6101e060048036038101906101db9190611d18565b610593565b005b6101fc60048036038101906101f79190611c23565b6105b3565b6040516102099190611c91565b60405180910390f35b61022c60048036038101906102279190611d6b565b6105c5565b6040516102399190611da7565b60405180910390f35b61024a61067f565b005b610254610693565b6040516102619190611c91565b60405180910390f35b6102726106bd565b60405161027f9190611bcb565b60405180910390f35b6102a2600480360381019061029d9190611dee565b61074f565b005b6102be60048036038101906102b99190611f63565b610765565b005b6102da60048036038101906102d59190611c23565b610782565b6040516102e79190611bcb565b60405180910390f35b61030a60048036038101906103059190612046565b610895565b6040516103179190611da7565b60405180910390f35b61033a600480360381019061033591906120a6565b61091d565b6040516103479190611b20565b60405180910390f35b61036a60048036038101906103659190611d6b565b6109b1565b005b6000634906490660e01b7bffffffffffffffffffffffffffffffffffffffffffffffffffffffff1916827bffffffffffffffffffffffffffffffffffffffffffffffffffffffff191614806103c657506103c582610a37565b5b9050919050565b6060600080546103dc90612115565b80601f016020809104026020016040519081016040528092919081815260200182805461040890612115565b80156104555780601f1061042a57610100808354040283529160200191610455565b820191906000526020600020905b81548152906001019060200180831161043857829003601f168201915b5050505050905090565b600061046a82610b19565b5061047482610ba1565b9050919050565b61048d8282610488610bde565b610be6565b5050565b600073ffffffffffffffffffffffffffffffffffffffff168273ffffffffffffffffffffffffffffffffffffffff16036105035760006040517f64a0ae920000000000000000000000000000000000000000000000000000000081526004016104fa9190611c91565b60405180910390fd5b60006105178383610512610bde565b610bf8565b90508373ffffffffffffffffffffffffffffffffffffffff168173ffffffffffffffffffffffffffffffffffffffff161461058d578382826040517f64283d7b00000000000000000000000000000000000000000000000000000000815260040161058493929190612146565b60405180910390fd5b50505050565b6105ae83838360405180602001604052806000815250610765565b505050565b60006105be82610b19565b9050919050565b60008073ffffffffffffffffffffffffffffffffffffffff168273ffffffffffffffffffffffffffffffffffffffff16036106385760006040517f89c62b6400000000000000000000000000000000000000000000000000000000815260040161062f9190611c91565b60405180910390fd5b600360008373ffffffffffffffffffffffffffffffffffffffff1673ffffffffffffffffffffffffffffffffffffffff168152602001908152602001600020549050919050565b610687610e12565b6106916000610e99565b565b6000600760009054906101000a900473ffffffffffffffffffffffffffffffffffffffff16905090565b6060600180546106cc90612115565b80601f01602080910402602001604051908101604052809291908181526020018280546106f890612115565b80156107455780601f1061071a57610100808354040283529160200191610745565b820191906000526020600020905b81548152906001019060200180831161072857829003601f168201915b5050505050905090565b61076161075a610bde565b8383610f5f565b5050565b610770848484610491565b61077c848484846110ce565b50505050565b606061078d82610b19565b5060006006600084815260200190815260200160002080546107ae90612115565b80601f01602080910402602001604051908101604052809291908181526020018280546107da90612115565b80156108275780601f106107fc57610100808354040283529160200191610827565b820191906000526020600020905b81548152906001019060200180831161080a57829003601f168201915b505050505090506000610838611285565b9050600081510361084d578192505050610890565b60008251111561088257808260405160200161086a9291906121b9565b60405160208183030381529060405292505050610890565b61088b8461129c565b925050505b919050565b600061089f610e12565b6000600860008154809291906108b49061220c565b9190505590506108c48582611305565b6109128185858080601f016020809104026020016040519081016040528093929190818152602001838380828437600081840152601f19601f820116905080830192505050505050506113fe565b809150509392505050565b6000600560008473ffffffffffffffffffffffffffffffffffffffff1673ffffffffffffffffffffffffffffffffffffffff16815260200190815260200160002060008373ffffffffffffffffffffffffffffffffffffffff1673ffffffffffffffffffffffffffffffffffffffff16815260200190815260200160002060009054906101000a900460ff16905092915050565b6109b9610e12565b600073ffffffffffffffffffffffffffffffffffffffff168173ffffffffffffffffffffffffffffffffffffffff1603610a2b5760006040517f1e4fbdf7000000000000000000000000000000000000000000000000000000008152600401610a229190611c91565b60405180910390fd5b610a3481610e99565b50565b60007f80ac58cd000000000000000000000000000000000000000000000000000000007bffffffffffffffffffffffffffffffffffffffffffffffffffffffff1916827bffffffffffffffffffffffffffffffffffffffffffffffffffffffff19161480610b0257507f5b5e139f000000000000000000000000000000000000000000000000000000007bffffffffffffffffffffffffffffffffffffffffffffffffffffffff1916827bffffffffffffffffffffffffffffffffffffffffffffffffffffffff1916145b80610b125750610b118261145a565b5b9050919050565b600080610b25836114c4565b9050600073ffffffffffffffffffffffffffffffffffffffff168173ffffffffffffffffffffffffffffffffffffffff1603610b9857826040517f7e273289000000000000000000000000000000000000000000000000000000008152600401610b8f9190611da7565b60405180910390fd5b80915050919050565b60006004600083815260200190815260200160002060009054906101000a900473ffffffffffffffffffffffffffffffffffffffff169050919050565b600033905090565b610bf38383836001611501565b505050565b600080610c04846114c4565b9050600073ffffffffffffffffffffffffffffffffffffffff168373ffffffffffffffffffffffffffffffffffffffff1614610c4657610c458184866116c6565b5b600073ffffffffffffffffffffffffffffffffffffffff168173ffffffffffffffffffffffffffffffffffffffff1614610cd757610c88600085600080611501565b6001600360008373ffffffffffffffffffffffffffffffffffffffff1673ffffffffffffffffffffffffffffffffffffffff168152602001908152602001600020600082825403925050819055505b600073ffffffffffffffffffffffffffffffffffffffff168573ffffffffffffffffffffffffffffffffffffffff1614610d5a576001600360008773ffffffffffffffffffffffffffffffffffffffff1673ffffffffffffffffffffffffffffffffffffffff168152602001908152602001600020600082825401925050819055505b846002600086815260200190815260200160002060006101000a81548173ffffffffffffffffffffffffffffffffffffffff021916908373ffffffffffffffffffffffffffffffffffffffff160217905550838573ffffffffffffffffffffffffffffffffffffffff168273ffffffffffffffffffffffffffffffffffffffff167fddf252ad1be2c89b69c2b068fc378daa952ba7f163c4a11628f55a4df523b3ef60405160405180910390a4809150509392505050565b610e1a610bde565b73ffffffffffffffffffffffffffffffffffffffff16610e38610693565b73ffffffffffffffffffffffffffffffffffffffff1614610e9757610e5b610bde565b6040517f118cdaa7000000000000000000000000000000000000000000000000000000008152600401610e8e9190611c91565b60405180910390fd5b565b6000600760009054906101000a900473ffffffffffffffffffffffffffffffffffffffff16905081600760006101000a81548173ffffffffffffffffffffffffffffffffffffffff021916908373ffffffffffffffffffffffffffffffffffffffff1602179055508173ffffffffffffffffffffffffffffffffffffffff168173ffffffffffffffffffffffffffffffffffffffff167f8be0079c531659141344cd1fd0a4f28419497f9722a3daafe3b4186f6b6457e060405160405180910390a35050565b600073ffffffffffffffffffffffffffffffffffffffff168273ffffffffffffffffffffffffffffffffffffffff1603610fd057816040517f5b08ba18000000000000000000000000000000000000000000000000000000008152600401610fc79190611c91565b60405180910390fd5b80600560008573ffffffffffffffffffffffffffffffffffffffff1673ffffffffffffffffffffffffffffffffffffffff16815260200190815260200160002060008473ffffffffffffffffffffffffffffffffffffffff1673ffffffffffffffffffffffffffffffffffffffff16815260200190815260200160002060006101000a81548160ff0219169083151502179055508173ffffffffffffffffffffffffffffffffffffffff168373ffffffffffffffffffffffffffffffffffffffff167f17307eab39ab6107e8899845ad3d59bd9653f200f220920489ca2b5937696c31836040516110c19190611b20565b60405180910390a3505050565b60008373ffffffffffffffffffffffffffffffffffffffff163b111561127f578273ffffffffffffffffffffffffffffffffffffffff1663150b7a02611112610bde565b8685856040518563ffffffff1660e01b815260040161113494939291906122a9565b6020604051808303816000875af192505050801561117057506040513d601f19601f8201168201806040525081019061116d919061230a565b60015b6111f4573d80600081146111a0576040519150601f19603f3d011682016040523d82523d6000602084013e6111a5565b606091505b5060008151036111ec57836040517f64a0ae920000000000000000000000000000000000000000000000000000000081526004016111e39190611c91565b60405180910390fd5b805181602001fd5b63150b7a0260e01b7bffffffffffffffffffffffffffffffffffffffffffffffffffffffff1916817bffffffffffffffffffffffffffffffffffffffffffffffffffffffff19161461127d57836040517f64a0ae920000000000000000000000000000000000000000000000000000000081526004016112749190611c91565b60405180910390fd5b505b50505050565b606060405180602001604052806000815250905090565b60606112a782610b19565b5060006112b2611285565b905060008151116112d257604051806020016040528060008152506112fd565b806112dc8461178a565b6040516020016112ed9291906121b9565b6040516020818303038152906040525b915050919050565b600073ffffffffffffffffffffffffffffffffffffffff168273ffffffffffffffffffffffffffffffffffffffff16036113775760006040517f64a0ae9200000000000000000000000000000000000000000000000000000000815260040161136e9190611c91565b60405180910390fd5b600061138583836000610bf8565b9050600073ffffffffffffffffffffffffffffffffffffffff168173ffffffffffffffffffffffffffffffffffffffff16146113f95760006040517f73c6ac6e0000000000000000000000000000000000000000000000000000000081526004016113f09190611c91565b60405180910390fd5b505050565b8060066000848152602001908152602001600020908161141e91906124e3565b507ff8e1a15aba9398e019f0b49df1a4fde98ee17ae345cb5f6b5e2c27f5033e8ce78260405161144e9190611da7565b60405180910390a15050565b60007f01ffc9a7000000000000000000000000000000000000000000000000000000007bffffffffffffffffffffffffffffffffffffffffffffffffffffffff1916827bffffffffffffffffffffffffffffffffffffffffffffffffffffffff1916149050919050565b60006002600083815260200190815260200160002060009054906101000a900473ffffffffffffffffffffffffffffffffffffffff169050919050565b808061153a5750600073ffffffffffffffffffffffffffffffffffffffff168273ffffffffffffffffffffffffffffffffffffffff1614155b1561166e57600061154a84610b19565b9050600073ffffffffffffffffffffffffffffffffffffffff168373ffffffffffffffffffffffffffffffffffffffff16141580156115b557508273ffffffffffffffffffffffffffffffffffffffff168173ffffffffffffffffffffffffffffffffffffffff1614155b80156115c857506115c6818461091d565b155b1561160a57826040517fa9fbf51f0000000000000000000000000000000000000000000000000000000081526004016116019190611c91565b60405180910390fd5b811561166c57838573ffffffffffffffffffffffffffffffffffffffff168273ffffffffffffffffffffffffffffffffffffffff167f8c5be1e5ebec7d5bd14f71427d1e84f3dd0314c0f7b2291e5b200ac8c7c3b92560405160405180910390a45b505b836004600085815260200190815260200160002060006101000a81548173ffffffffffffffffffffffffffffffffffffffff021916908373ffffffffffffffffffffffffffffffffffffffff16021790555050505050565b6116d1838383611858565b61178557600073ffffffffffffffffffffffffffffffffffffffff168373ffffffffffffffffffffffffffffffffffffffff160361174657806040517f7e27328900000000000000000000000000000000000000000000000000000000815260040161173d9190611da7565b60405180910390fd5b81816040517f177e802f00000000000000000000000000000000000000000000000000000000815260040161177c9291906125b5565b60405180910390fd5b505050565b60606000600161179984611919565b01905060008167ffffffffffffffff8111156117b8576117b7611e38565b5b6040519080825280601f01601f1916602001820160405280156117ea5781602001600182028036833780820191505090505b509050600082602001820190505b60011561184d578080600190039150507f3031323334353637383961626364656600000000000000000000000000000000600a86061a8153600a8581611841576118406125de565b5b049450600085036117f8575b819350505050919050565b60008073ffffffffffffffffffffffffffffffffffffffff168373ffffffffffffffffffffffffffffffffffffffff161415801561191057508273ffffffffffffffffffffffffffffffffffffffff168473ffffffffffffffffffffffffffffffffffffffff1614806118d157506118d0848461091d565b5b8061190f57508273ffffffffffffffffffffffffffffffffffffffff166118f783610ba1565b73ffffffffffffffffffffffffffffffffffffffff16145b5b90509392505050565b600080600090507a184f03e93ff9f4daa797ed6e38ed64bf6a1f0100000000000000008310611977577a184f03e93ff9f4daa797ed6e38ed64bf6a1f010000000000000000838161196d5761196c6125de565b5b0492506040810190505b6d04ee2d6d415b85acef810000000083106119b4576d04ee2d6d415b85acef810000000083816119aa576119a96125de565b5b0492506020810190505b662386f26fc1000083106119e357662386f26fc1000083816119d9576119d86125de565b5b0492506010810190505b6305f5e1008310611a0c576305f5e1008381611a0257611a016125de565b5b0492506008810190505b6127108310611a31576127108381611a2757611a266125de565b5b0492506004810190505b60648310611a545760648381611a4a57611a496125de565b5b0492506002810190505b600a8310611a63576001810190505b80915050919050565b6000604051905090565b600080fd5b600080fd5b60007fffffffff0000000000000000000000000000000000000000000000000000000082169050919050565b611ab581611a80565b8114611ac057600080fd5b50565b600081359050611ad281611aac565b92915050565b600060208284031215611aee57611aed611a76565b5b6000611afc84828501611ac3565b91505092915050565b60008115159050919050565b611b1a81611b05565b82525050565b6000602082019050611b356000830184611b11565b92915050565b600081519050919050565b600082825260208201905092915050565b60005b83811015611b75578082015181840152602081019050611b5a565b60008484015250505050565b6000601f19601f8301169050919050565b6000611b9d82611b3b565b611ba78185611b46565b9350611bb7818560208601611b57565b611bc081611b81565b840191505092915050565b60006020820190508181036000830152611be58184611b92565b905092915050565b6000819050919050565b611c0081611bed565b8114611c0b57600080fd5b50565b600081359050611c1d81611bf7565b92915050565b600060208284031215611c3957611c38611a76565b5b6000611c4784828501611c0e565b91505092915050565b600073ffffffffffffffffffffffffffffffffffffffff82169050919050565b6000611c7b82611c50565b9050919050565b611c8b81611c70565b82525050565b6000602082019050611ca66000830184611c82565b92915050565b611cb581611c70565b8114611cc057600080fd5b50565b600081359050611cd281611cac565b92915050565b60008060408385031215611cef57611cee611a76565b5b6000611cfd85828601611cc3565b9250506020611d0e85828601611c0e565b9150509250929050565b600080600060608486031215611d3157611d30611a76565b5b6000611d3f86828701611cc3565b9350506020611d5086828701611cc3565b9250506040611d6186828701611c0e565b9150509250925092565b600060208284031215611d8157611d80611a76565b5b6000611d8f84828501611cc3565b91505092915050565b611da181611bed565b82525050565b6000602082019050611dbc6000830184611d98565b92915050565b611dcb81611b05565b8114611dd657600080fd5b50565b600081359050611de881611dc2565b92915050565b60008060408385031215611e0557611e04611a76565b5b6000611e1385828601611cc3565b9250506020611e2485828601611dd9565b9150509250929050565b600080fd5b600080fd5b7f4e487b7100000000000000000000000000000000000000000000000000000000600052604160045260246000fd5b611e7082611b81565b810181811067ffffffffffffffff82111715611e8f57611e8e611e38565b5b80604052505050565b6000611ea2611a6c565b9050611eae8282611e67565b919050565b600067ffffffffffffffff821115611ece57611ecd611e38565b5b611ed782611b81565b9050602081019050919050565b82818337600083830152505050565b6000611f06611f0184611eb3565b611e98565b905082815260208101848484011115611f2257611f21611e33565b5b611f2d848285611ee4565b509392505050565b600082601f830112611f4a57611f49611e2e565b5b8135611f5a848260208601611ef3565b91505092915050565b60008060008060808587031215611f7d57611f7c611a76565b5b6000611f8b87828801611cc3565b9450506020611f9c87828801611cc3565b9350506040611fad87828801611c0e565b925050606085013567ffffffffffffffff811115611fce57611fcd611a7b565b5b611fda87828801611f35565b91505092959194509250565b600080fd5b600080fd5b60008083601f84011261200657612005611e2e565b5b8235905067ffffffffffffffff81111561202357612022611fe6565b5b60208301915083600182028301111561203f5761203e611feb565b5b9250929050565b60008060006040848603121561205f5761205e611a76565b5b600061206d86828701611cc3565b935050602084013567ffffffffffffffff81111561208e5761208d611a7b565b5b61209a86828701611ff0565b92509250509250925092565b600080604083850312156120bd576120bc611a76565b5b60006120cb85828601611cc3565b92505060206120dc85828601611cc3565b9150509250929050565b7f4e487b7100000000000000000000000000000000000000000000000000000000600052602260045260246000fd5b6000600282049050600182168061212d57607f821691505b6020821081036121405761213f6120e6565b5b50919050565b600060608201905061215b6000830186611c82565b6121686020830185611d98565b6121756040830184611c82565b949350505050565b600081905092915050565b600061219382611b3b565b61219d818561217d565b93506121ad818560208601611b57565b80840191505092915050565b60006121c58285612188565b91506121d18284612188565b91508190509392505050565b7f4e487b7100000000000000000000000000000000000000000000000000000000600052601160045260246000fd5b600061221782611bed565b91507fffffffffffffffffffffffffffffffffffffffffffffffffffffffffffffffff8203612249576122486121dd565b5b600182019050919050565b600081519050919050565b600082825260208201905092915050565b600061227b82612254565b612285818561225f565b9350612295818560208601611b57565b61229e81611b81565b840191505092915050565b60006080820190506122be6000830187611c82565b6122cb6020830186611c82565b6122d86040830185611d98565b81810360608301526122ea8184612270565b905095945050505050565b60008151905061230481611aac565b92915050565b6000602082840312156123205761231f611a76565b5b600061232e848285016122f5565b91505092915050565b60008190508160005260206000209050919050565b60006020601f8301049050919050565b600082821b905092915050565b6000600883026123997fffffffffffffffffffffffffffffffffffffffffffffffffffffffffffffffff8261235c565b6123a3868361235c565b95508019841693508086168417925050509392505050565b6000819050919050565b60006123e06123db6123d684611bed565b6123bb565b611bed565b9050919050565b6000819050919050565b6123fa836123c5565b61240e612406826123e7565b848454612369565b825550505050565b600090565b612423612416565b61242e8184846123f1565b505050565b5b818110156124525761244760008261241b565b600181019050612434565b5050565b601f8211156124975761246881612337565b6124718461234c565b81016020851015612480578190505b61249461248c8561234c565b830182612433565b50505b505050565b600082821c905092915050565b60006124ba6000198460080261249c565b1980831691505092915050565b60006124d383836124a9565b9150826002028217905092915050565b6124ec82611b3b565b67ffffffffffffffff81111561250557612504611e38565b5b61250f8254612115565b61251a828285612456565b600060209050601f83116001811461254d576000841561253b578287015190505b61254585826124c7565b8655506125ad565b601f19841661255b86612337565b60005b828110156125835784890151825560018201915060208501945060208101905061255e565b868310156125a0578489015161259c601f8916826124a9565b8355505b6001600288020188555050505b505050505050565b60006040820190506125ca6000830185611c82565b6125d76020830184611d98565b9392505050565b7f4e487b7100000000000000000000000000000000000000000000000000000000600052601260045260246000fdfea2646970667358221220dd8f58db1a759d9a84beafadf292f8cd1830295466b2dc02c3c9fc6267f390bf64736f6c63430008180033",
  "linkReferences": {},
  "deployedLinkReferences": {}
}