{
  "_format": "hh-sol-artifact-1",
  "contractName": "MyContract",
  "sourceName": "contracts/MyContract.sol",
  "abi": [
    {
      "inputs": [],
      "stateMutability": "nonpayable",
      "type": "constructor"
    },
    {
      "inputs": [
        {
          "internalType": "address",
          "name": "sender",
          "type": "address"
        },
        {
          "internalType": "uint256",
          "name": "tokenId",
          "type": "uint256"
        },
        {
          "internalType": "address",
          "name": "owner",
          "type": "address"
        }
      ],
      "name": "ERC721IncorrectOwner",
      "type": "error"
    },
    {
      "inputs": [
        {
          "internalType": "address",
          "name": "operator",
          "type": "address"
        },
        {
          "internalType": "uint256",
          "name": "tokenId",
          "type": "uint256"
        }
      ],
      "name": "ERC721InsufficientApproval",
      "type": "error"
    },
    {
      "inputs": [
        {
          "internalType": "address",
          "name": "approver",
          "type": "address"
        }
      ],
      "name": "ERC721InvalidApprover",
      "type": "error"
    },
    {
      "inputs": [
        {
          "internalType": "address",
          "name": "operator",
          "type": "address"
        }
      ],
      "name": "ERC721InvalidOperator",
      "type": "error"
    },
    {
      "inputs": [
        {
          "internalType": "address",
          "name": "owner",
          "type": "address"
        }
      ],
      "name": "ERC721InvalidOwner",
      "type": "error"
    },
    {
      "inputs": [
        {
          "internalType": "address",
          "name": "receiver",
          "type": "address"
        }
      ],
      "name": "ERC721InvalidReceiver",
      "type": "error"
    },
    {
      "inputs": [
        {
          "internalType": "address",
          "name": "sender",
          "type": "address"
        }
      ],
      "name": "ERC721InvalidSender",
      "type": "error"
    },
    {
      "inputs": [
        {
          "internalType": "uint256",
          "name": "tokenId",
          "type": "uint256"
        }
      ],
      "name": "ERC721NonexistentToken",
      "type": "error"
    },
    {
      "anonymous": false,
      "inputs": [
        {
          "indexed": true,
          "internalType": "address",
          "name": "owner",
          "type": "address"
        },
        {
          "indexed": true,
          "internalType": "address",
          "name": "approved",
          "type": "address"
        },
        {
          "indexed": true,
          "internalType": "uint256",
          "name": "tokenId",
          "type": "uint256"
        }
      ],
      "name": "Approval",
      "type": "event"
    },
    {
      "anonymous": false,
      "inputs": [
        {
          "indexed": true,
          "internalType": "address",
          "name": "owner",
          "type": "address"
        },
        {
          "indexed": true,
          "internalType": "address",
          "name": "operator",
          "type": "address"
        },
        {
          "indexed": false,
          "internalType": "bool",
          "name": "approved",
          "type": "bool"
        }
      ],
      "name": "ApprovalForAll",
      "type": "event"
    },
    {
      "anonymous": false,
      "inputs": [
        {
          "indexed": true,
          "internalType": "address",
          "name": "from",
          "type": "address"
        },
        {
          "indexed": true,
          "internalType": "address",
          "name": "to",
          "type": "address"
        },
        {
          "indexed": true,
          "internalType": "uint256",
          "name": "tokenId",
          "type": "uint256"
        }
      ],
      "name": "Transfer",
      "type": "event"
    },
    {
      "inputs": [
        {
          "internalType": "address",
          "name": "to",
          "type": "address"
        },
        {
          "internalType": "uint256",
          "name": "tokenId",
          "type": "uint256"
        }
      ],
      "name": "approve",
      "outputs": [],
      "stateMutability": "nonpayable",
      "type": "function"
    },
    {
      "inputs": [
        {
          "internalType": "address",
          "name": "owner",
          "type": "address"
        }
      ],
      "name": "balanceOf",
      "outputs": [
        {
          "internalType": "uint256",
          "name": "",
          "type": "uint256"
        }
      ],
      "stateMutability": "view",
      "type": "function"
    },
    {
      "inputs": [
        {
          "internalType": "uint256",
          "name": "tokenId",
          "type": "uint256"
        }
      ],
      "name": "getApproved",
      "outputs": [
        {
          "internalType": "address",
          "name": "",
          "type": "address"
        }
      ],
      "stateMutability": "view",
      "type": "function"
    },
    {
      "inputs": [
        {
          "internalType": "address",
          "name": "owner",
          "type": "address"
        },
        {
          "internalType": "address",
          "name": "operator",
          "type": "address"
        }
      ],
      "name": "isApprovedForAll",
      "outputs": [
        {
          "internalType": "bool",
          "name": "",
          "type": "bool"
        }
      ],
      "stateMutability": "view",
      "type": "function"
    },
    {
      "inputs": [],
      "name": "name",
      "outputs": [
        {
          "internalType": "string",
          "name": "",
          "type": "string"
        }
      ],
      "stateMutability": "view",
      "type": "function"
    },
    {
      "inputs": [
        {
          "internalType": "uint256",
          "name": "tokenId",
          "type": "uint256"
        }
      ],
      "name": "ownerOf",
      "outputs": [
        {
          "internalType": "address",
          "name": "",
          "type": "address"
        }
      ],
      "stateMutability": "view",
      "type": "function"
    },
    {
      "inputs": [
        {
          "internalType": "address",
          "name": "to",
          "type": "address"
        },
        {
          "internalType": "uint256",
          "name": "tokenId",
          "type": "uint256"
        },
        {
          "internalType": "bytes",
          "name": "_data",
          "type": "bytes"
        }
      ],
      "name": "safeMint",
      "outputs": [],
      "stateMutability": "nonpayable",
      "type": "function"
    },
    {
      "inputs": [
        {
          "internalType": "address",
          "name": "to",
          "type": "address"
        },
        {
          "internalType": "uint256",
          "name": "tokenId",
          "type": "uint256"
        }
      ],
      "name": "safeMint",
      "outputs": [],
      "stateMutability": "nonpayable",
      "type": "function"
    },
    {
      "inputs": [
        {
          "internalType": "address",
          "name": "from",
          "type": "address"
        },
        {
          "internalType": "address",
          "name": "to",
          "type": "address"
        },
        {
          "internalType": "uint256",
          "name": "tokenId",
          "type": "uint256"
        }
      ],
      "name": "safeTransferFrom",
      "outputs": [],
      "stateMutability": "nonpayable",
      "type": "function"
    },
    {
      "inputs": [
        {
          "internalType": "address",
          "name": "from",
          "type": "address"
        },
        {
          "internalType": "address",
          "name": "to",
          "type": "address"
        },
        {
          "internalType": "uint256",
          "name": "tokenId",
          "type": "uint256"
        },
        {
          "internalType": "bytes",
          "name": "data",
          "type": "bytes"
        }
      ],
      "name": "safeTransferFrom",
      "outputs": [],
      "stateMutability": "nonpayable",
      "type": "function"
    },
    {
      "inputs": [
        {
          "internalType": "address",
          "name": "operator",
          "type": "address"
        },
        {
          "internalType": "bool",
          "name": "approved",
          "type": "bool"
        }
      ],
      "name": "setApprovalForAll",
      "outputs": [],
      "stateMutability": "nonpayable",
      "type": "function"
    },
    {
      "inputs": [
        {
          "internalType": "bytes4",
          "name": "interfaceId",
          "type": "bytes4"
        }
      ],
      "name": "supportsInterface",
      "outputs": [
        {
          "internalType": "bool",
          "name": "",
          "type": "bool"
        }
      ],
      "stateMutability": "view",
      "type": "function"
    },
    {
      "inputs": [],
      "name": "symbol",
      "outputs": [
        {
          "internalType": "string",
          "name": "",
          "type": "string"
        }
      ],
      "stateMutability": "view",
      "type": "function"
    },
    {
      "inputs": [
        {
          "internalType": "uint256",
          "name": "tokenId",
          "type": "uint256"
        }
      ],
      "name": "tokenURI",
      "outputs": [
        {
          "internalType": "string",
          "name": "",
          "type": "string"
        }
      ],
      "stateMutability": "view",
      "type": "function"
    },
    {
      "inputs": [
        {
          "internalType": "address",
          "name": "from",
          "type": "address"
        },
        {
          "internalType": "address",
          "name": "to",
          "type": "address"
        },
        {
          "internalType": "uint256",
          "name": "tokenId",
          "type": "uint256"
        }
      ],
      "name": "transferFrom",
      "outputs": [],
      "stateMutability": "nonpayable",
      "type": "function"
    }
  ],
  "bytecode": "0x60806040523480156200001157600080fd5b506040518060400160405280600d81526020017f4d79436f6c6c65637469626c65000000000000000000000000000000000000008152506040518060400160405280600381526020017f4d434f000000000000000000000000000000000000000000000000000000000081525081600090816200008f919062000365565b508060019081620000a1919062000365565b50505033600660006101000a81548173ffffffffffffffffffffffffffffffffffffffff021916908373ffffffffffffffffffffffffffffffffffffffff1602179055506200044c565b600081519050919050565b7f4e487b7100000000000000000000000000000000000000000000000000000000600052604160045260246000fd5b7f4e487b7100000000000000000000000000000000000000000000000000000000600052602260045260246000fd5b600060028204905060018216806200016d57607f821691505b60208210810362000183576200018262000125565b5b50919050565b60008190508160005260206000209050919050565b60006020601f8301049050919050565b600082821b905092915050565b600060088302620001ed7fffffffffffffffffffffffffffffffffffffffffffffffffffffffffffffffff82620001ae565b620001f98683620001ae565b95508019841693508086168417925050509392505050565b6000819050919050565b6000819050919050565b600062000246620002406200023a8462000211565b6200021b565b62000211565b9050919050565b6000819050919050565b620002628362000225565b6200027a62000271826200024d565b848454620001bb565b825550505050565b600090565b6200029162000282565b6200029e81848462000257565b505050565b5b81811015620002c657620002ba60008262000287565b600181019050620002a4565b5050565b601f8211156200031557620002df8162000189565b620002ea846200019e565b81016020851015620002fa578190505b6200031262000309856200019e565b830182620002a3565b50505b505050565b600082821c905092915050565b60006200033a600019846008026200031a565b1980831691505092915050565b600062000355838362000327565b9150826002028217905092915050565b6200037082620000eb565b67ffffffffffffffff8111156200038c576200038b620000f6565b5b62000398825462000154565b620003a5828285620002ca565b600060209050601f831160018114620003dd5760008415620003c8578287015190505b620003d4858262000347565b86555062000444565b601f198416620003ed8662000189565b60005b828110156200041757848901518255600182019150602085019450602081019050620003f0565b8683101562000437578489015162000433601f89168262000327565b8355505b6001600288020188555050505b505050505050565b6120d0806200045c6000396000f3fe608060405234801561001057600080fd5b50600436106100f55760003560e01c806370a0823111610097578063a22cb46511610066578063a22cb46514610282578063b88d4fde1461029e578063c87b56dd146102ba578063e985e9c5146102ea576100f5565b806370a08231146101fc5780638832e6e31461022c57806395d89b4114610248578063a144819414610266576100f5565b8063095ea7b3116100d3578063095ea7b31461017857806323b872dd1461019457806342842e0e146101b05780636352211e146101cc576100f5565b806301ffc9a7146100fa57806306fdde031461012a578063081812fc14610148575b600080fd5b610114600480360381019061010f91906117da565b61031a565b6040516101219190611822565b60405180910390f35b6101326103fc565b60405161013f91906118cd565b60405180910390f35b610162600480360381019061015d9190611925565b61048e565b60405161016f9190611993565b60405180910390f35b610192600480360381019061018d91906119da565b6104aa565b005b6101ae60048036038101906101a99190611a1a565b6104c0565b005b6101ca60048036038101906101c59190611a1a565b6105c2565b005b6101e660048036038101906101e19190611925565b6105e2565b6040516101f39190611993565b60405180910390f35b61021660048036038101906102119190611a6d565b6105f4565b6040516102239190611aa9565b60405180910390f35b61024660048036038101906102419190611b29565b6106ae565b005b610250610793565b60405161025d91906118cd565b60405180910390f35b610280600480360381019061027b91906119da565b610825565b005b61029c60048036038101906102979190611bc9565b6108c3565b005b6102b860048036038101906102b39190611d39565b6108d9565b005b6102d460048036038101906102cf9190611925565b6108f6565b6040516102e191906118cd565b60405180910390f35b61030460048036038101906102ff9190611dbc565b61095f565b6040516103119190611822565b60405180910390f35b60007f80ac58cd000000000000000000000000000000000000000000000000000000007bffffffffffffffffffffffffffffffffffffffffffffffffffffffff1916827bffffffffffffffffffffffffffffffffffffffffffffffffffffffff191614806103e557507f5b5e139f000000000000000000000000000000000000000000000000000000007bffffffffffffffffffffffffffffffffffffffffffffffffffffffff1916827bffffffffffffffffffffffffffffffffffffffffffffffffffffffff1916145b806103f557506103f4826109f3565b5b9050919050565b60606000805461040b90611e2b565b80601f016020809104026020016040519081016040528092919081815260200182805461043790611e2b565b80156104845780601f1061045957610100808354040283529160200191610484565b820191906000526020600020905b81548152906001019060200180831161046757829003601f168201915b5050505050905090565b600061049982610a5d565b506104a382610ae5565b9050919050565b6104bc82826104b7610b22565b610b2a565b5050565b600073ffffffffffffffffffffffffffffffffffffffff168273ffffffffffffffffffffffffffffffffffffffff16036105325760006040517f64a0ae920000000000000000000000000000000000000000000000000000000081526004016105299190611993565b60405180910390fd5b60006105468383610541610b22565b610b3c565b90508373ffffffffffffffffffffffffffffffffffffffff168173ffffffffffffffffffffffffffffffffffffffff16146105bc578382826040517f64283d7b0000000000000000000000000000000000000000000000000000000081526004016105b393929190611e5c565b60405180910390fd5b50505050565b6105dd838383604051806020016040528060008152506108d9565b505050565b60006105ed82610a5d565b9050919050565b60008073ffffffffffffffffffffffffffffffffffffffff168273ffffffffffffffffffffffffffffffffffffffff16036106675760006040517f89c62b6400000000000000000000000000000000000000000000000000000000815260040161065e9190611993565b60405180910390fd5b600360008373ffffffffffffffffffffffffffffffffffffffff1673ffffffffffffffffffffffffffffffffffffffff168152602001908152602001600020549050919050565b600660009054906101000a900473ffffffffffffffffffffffffffffffffffffffff1673ffffffffffffffffffffffffffffffffffffffff163373ffffffffffffffffffffffffffffffffffffffff161461073e576040517f08c379a000000000000000000000000000000000000000000000000000000000815260040161073590611edf565b60405180910390fd5b61078d848484848080601f016020809104026020016040519081016040528093929190818152602001838380828437600081840152601f19601f82011690508083019250505050505050610d56565b50505050565b6060600180546107a290611e2b565b80601f01602080910402602001604051908101604052809291908181526020018280546107ce90611e2b565b801561081b5780601f106107f05761010080835404028352916020019161081b565b820191906000526020600020905b8154815290600101906020018083116107fe57829003601f168201915b5050505050905090565b600660009054906101000a900473ffffffffffffffffffffffffffffffffffffffff1673ffffffffffffffffffffffffffffffffffffffff163373ffffffffffffffffffffffffffffffffffffffff16146108b5576040517f08c379a00000000000000000000000000000000000000000000000000000000081526004016108ac90611edf565b60405180910390fd5b6108bf8282610d72565b5050565b6108d56108ce610b22565b8383610d90565b5050565b6108e48484846104c0565b6108f084848484610eff565b50505050565b606061090182610a5d565b50600061090c6110b6565b9050600081511161092c5760405180602001604052806000815250610957565b80610936846110cd565b604051602001610947929190611f3b565b6040516020818303038152906040525b915050919050565b6000600560008473ffffffffffffffffffffffffffffffffffffffff1673ffffffffffffffffffffffffffffffffffffffff16815260200190815260200160002060008373ffffffffffffffffffffffffffffffffffffffff1673ffffffffffffffffffffffffffffffffffffffff16815260200190815260200160002060009054906101000a900460ff16905092915050565b60007f01ffc9a7000000000000000000000000000000000000000000000000000000007bffffffffffffffffffffffffffffffffffffffffffffffffffffffff1916827bffffffffffffffffffffffffffffffffffffffffffffffffffffffff1916149050919050565b600080610a698361119b565b9050600073ffffffffffffffffffffffffffffffffffffffff168173ffffffffffffffffffffffffffffffffffffffff1603610adc57826040517f7e273289000000000000000000000000000000000000000000000000000000008152600401610ad39190611aa9565b60405180910390fd5b80915050919050565b60006004600083815260200190815260200160002060009054906101000a900473ffffffffffffffffffffffffffffffffffffffff169050919050565b600033905090565b610b3783838360016111d8565b505050565b600080610b488461119b565b9050600073ffffffffffffffffffffffffffffffffffffffff168373ffffffffffffffffffffffffffffffffffffffff1614610b8a57610b8981848661139d565b5b600073ffffffffffffffffffffffffffffffffffffffff168173ffffffffffffffffffffffffffffffffffffffff1614610c1b57610bcc6000856000806111d8565b6001600360008373ffffffffffffffffffffffffffffffffffffffff1673ffffffffffffffffffffffffffffffffffffffff168152602001908152602001600020600082825403925050819055505b600073ffffffffffffffffffffffffffffffffffffffff168573ffffffffffffffffffffffffffffffffffffffff1614610c9e576001600360008773ffffffffffffffffffffffffffffffffffffffff1673ffffffffffffffffffffffffffffffffffffffff168152602001908152602001600020600082825401925050819055505b846002600086815260200190815260200160002060006101000a81548173ffffffffffffffffffffffffffffffffffffffff021916908373ffffffffffffffffffffffffffffffffffffffff160217905550838573ffffffffffffffffffffffffffffffffffffffff168273ffffffffffffffffffffffffffffffffffffffff167fddf252ad1be2c89b69c2b068fc378daa952ba7f163c4a11628f55a4df523b3ef60405160405180910390a4809150509392505050565b610d608383611461565b610d6d6000848484610eff565b505050565b610d8c828260405180602001604052806000815250610d56565b5050565b600073ffffffffffffffffffffffffffffffffffffffff168273ffffffffffffffffffffffffffffffffffffffff1603610e0157816040517f5b08ba18000000000000000000000000000000000000000000000000000000008152600401610df89190611993565b60405180910390fd5b80600560008573ffffffffffffffffffffffffffffffffffffffff1673ffffffffffffffffffffffffffffffffffffffff16815260200190815260200160002060008473ffffffffffffffffffffffffffffffffffffffff1673ffffffffffffffffffffffffffffffffffffffff16815260200190815260200160002060006101000a81548160ff0219169083151502179055508173ffffffffffffffffffffffffffffffffffffffff168373ffffffffffffffffffffffffffffffffffffffff167f17307eab39ab6107e8899845ad3d59bd9653f200f220920489ca2b5937696c3183604051610ef29190611822565b60405180910390a3505050565b60008373ffffffffffffffffffffffffffffffffffffffff163b11156110b0578273ffffffffffffffffffffffffffffffffffffffff1663150b7a02610f43610b22565b8685856040518563ffffffff1660e01b8152600401610f659493929190611fb4565b6020604051808303816000875af1925050508015610fa157506040513d601f19601f82011682018060405250810190610f9e9190612015565b60015b611025573d8060008114610fd1576040519150601f19603f3d011682016040523d82523d6000602084013e610fd6565b606091505b50600081510361101d57836040517f64a0ae920000000000000000000000000000000000000000000000000000000081526004016110149190611993565b60405180910390fd5b805181602001fd5b63150b7a0260e01b7bffffffffffffffffffffffffffffffffffffffffffffffffffffffff1916817bffffffffffffffffffffffffffffffffffffffffffffffffffffffff1916146110ae57836040517f64a0ae920000000000000000000000000000000000000000000000000000000081526004016110a59190611993565b60405180910390fd5b505b50505050565b606060405180602001604052806000815250905090565b6060600060016110dc8461155a565b01905060008167ffffffffffffffff8111156110fb576110fa611c0e565b5b6040519080825280601f01601f19166020018201604052801561112d5781602001600182028036833780820191505090505b509050600082602001820190505b600115611190578080600190039150507f3031323334353637383961626364656600000000000000000000000000000000600a86061a8153600a858161118457611183612042565b5b0494506000850361113b575b819350505050919050565b60006002600083815260200190815260200160002060009054906101000a900473ffffffffffffffffffffffffffffffffffffffff169050919050565b80806112115750600073ffffffffffffffffffffffffffffffffffffffff168273ffffffffffffffffffffffffffffffffffffffff1614155b1561134557600061122184610a5d565b9050600073ffffffffffffffffffffffffffffffffffffffff168373ffffffffffffffffffffffffffffffffffffffff161415801561128c57508273ffffffffffffffffffffffffffffffffffffffff168173ffffffffffffffffffffffffffffffffffffffff1614155b801561129f575061129d818461095f565b155b156112e157826040517fa9fbf51f0000000000000000000000000000000000000000000000000000000081526004016112d89190611993565b60405180910390fd5b811561134357838573ffffffffffffffffffffffffffffffffffffffff168273ffffffffffffffffffffffffffffffffffffffff167f8c5be1e5ebec7d5bd14f71427d1e84f3dd0314c0f7b2291e5b200ac8c7c3b92560405160405180910390a45b505b836004600085815260200190815260200160002060006101000a81548173ffffffffffffffffffffffffffffffffffffffff021916908373ffffffffffffffffffffffffffffffffffffffff16021790555050505050565b6113a88383836116ad565b61145c57600073ffffffffffffffffffffffffffffffffffffffff168373ffffffffffffffffffffffffffffffffffffffff160361141d57806040517f7e2732890000000000000000000000000000000000000000000000000000000081526004016114149190611aa9565b60405180910390fd5b81816040517f177e802f000000000000000000000000000000000000000000000000000000008152600401611453929190612071565b60405180910390fd5b505050565b600073ffffffffffffffffffffffffffffffffffffffff168273ffffffffffffffffffffffffffffffffffffffff16036114d35760006040517f64a0ae920000000000000000000000000000000000000000000000000000000081526004016114ca9190611993565b60405180910390fd5b60006114e183836000610b3c565b9050600073ffffffffffffffffffffffffffffffffffffffff168173ffffffffffffffffffffffffffffffffffffffff16146115555760006040517f73c6ac6e00000000000000000000000000000000000000000000000000000000815260040161154c9190611993565b60405180910390fd5b505050565b600080600090507a184f03e93ff9f4daa797ed6e38ed64bf6a1f01000000000000000083106115b8577a184f03e93ff9f4daa797ed6e38ed64bf6a1f01000000000000000083816115ae576115ad612042565b5b0492506040810190505b6d04ee2d6d415b85acef810000000083106115f5576d04ee2d6d415b85acef810000000083816115eb576115ea612042565b5b0492506020810190505b662386f26fc10000831061162457662386f26fc10000838161161a57611619612042565b5b0492506010810190505b6305f5e100831061164d576305f5e100838161164357611642612042565b5b0492506008810190505b612710831061167257612710838161166857611667612042565b5b0492506004810190505b60648310611695576064838161168b5761168a612042565b5b0492506002810190505b600a83106116a4576001810190505b80915050919050565b60008073ffffffffffffffffffffffffffffffffffffffff168373ffffffffffffffffffffffffffffffffffffffff161415801561176557508273ffffffffffffffffffffffffffffffffffffffff168473ffffffffffffffffffffffffffffffffffffffff1614806117265750611725848461095f565b5b8061176457508273ffffffffffffffffffffffffffffffffffffffff1661174c83610ae5565b73ffffffffffffffffffffffffffffffffffffffff16145b5b90509392505050565b6000604051905090565b600080fd5b600080fd5b60007fffffffff0000000000000000000000000000000000000000000000000000000082169050919050565b6117b781611782565b81146117c257600080fd5b50565b6000813590506117d4816117ae565b92915050565b6000602082840312156117f0576117ef611778565b5b60006117fe848285016117c5565b91505092915050565b60008115159050919050565b61181c81611807565b82525050565b60006020820190506118376000830184611813565b92915050565b600081519050919050565b600082825260208201905092915050565b60005b8381101561187757808201518184015260208101905061185c565b60008484015250505050565b6000601f19601f8301169050919050565b600061189f8261183d565b6118a98185611848565b93506118b9818560208601611859565b6118c281611883565b840191505092915050565b600060208201905081810360008301526118e78184611894565b905092915050565b6000819050919050565b611902816118ef565b811461190d57600080fd5b50565b60008135905061191f816118f9565b92915050565b60006020828403121561193b5761193a611778565b5b600061194984828501611910565b91505092915050565b600073ffffffffffffffffffffffffffffffffffffffff82169050919050565b600061197d82611952565b9050919050565b61198d81611972565b82525050565b60006020820190506119a86000830184611984565b92915050565b6119b781611972565b81146119c257600080fd5b50565b6000813590506119d4816119ae565b92915050565b600080604083850312156119f1576119f0611778565b5b60006119ff858286016119c5565b9250506020611a1085828601611910565b9150509250929050565b600080600060608486031215611a3357611a32611778565b5b6000611a41868287016119c5565b9350506020611a52868287016119c5565b9250506040611a6386828701611910565b9150509250925092565b600060208284031215611a8357611a82611778565b5b6000611a91848285016119c5565b91505092915050565b611aa3816118ef565b82525050565b6000602082019050611abe6000830184611a9a565b92915050565b600080fd5b600080fd5b600080fd5b60008083601f840112611ae957611ae8611ac4565b5b8235905067ffffffffffffffff811115611b0657611b05611ac9565b5b602083019150836001820283011115611b2257611b21611ace565b5b9250929050565b60008060008060608587031215611b4357611b42611778565b5b6000611b51878288016119c5565b9450506020611b6287828801611910565b935050604085013567ffffffffffffffff811115611b8357611b8261177d565b5b611b8f87828801611ad3565b925092505092959194509250565b611ba681611807565b8114611bb157600080fd5b50565b600081359050611bc381611b9d565b92915050565b60008060408385031215611be057611bdf611778565b5b6000611bee858286016119c5565b9250506020611bff85828601611bb4565b9150509250929050565b600080fd5b7f4e487b7100000000000000000000000000000000000000000000000000000000600052604160045260246000fd5b611c4682611883565b810181811067ffffffffffffffff82111715611c6557611c64611c0e565b5b80604052505050565b6000611c7861176e565b9050611c848282611c3d565b919050565b600067ffffffffffffffff821115611ca457611ca3611c0e565b5b611cad82611883565b9050602081019050919050565b82818337600083830152505050565b6000611cdc611cd784611c89565b611c6e565b905082815260208101848484011115611cf857611cf7611c09565b5b611d03848285611cba565b509392505050565b600082601f830112611d2057611d1f611ac4565b5b8135611d30848260208601611cc9565b91505092915050565b60008060008060808587031215611d5357611d52611778565b5b6000611d61878288016119c5565b9450506020611d72878288016119c5565b9350506040611d8387828801611910565b925050606085013567ffffffffffffffff811115611da457611da361177d565b5b611db087828801611d0b565b91505092959194509250565b60008060408385031215611dd357611dd2611778565b5b6000611de1858286016119c5565b9250506020611df2858286016119c5565b9150509250929050565b7f4e487b7100000000000000000000000000000000000000000000000000000000600052602260045260246000fd5b60006002820490506001821680611e4357607f821691505b602082108103611e5657611e55611dfc565b5b50919050565b6000606082019050611e716000830186611984565b611e7e6020830185611a9a565b611e8b6040830184611984565b949350505050565b7f4e4654426173653a204f6e6c79206f776e65722063616e206d696e7400000000600082015250565b6000611ec9601c83611848565b9150611ed482611e93565b602082019050919050565b60006020820190508181036000830152611ef881611ebc565b9050919050565b600081905092915050565b6000611f158261183d565b611f1f8185611eff565b9350611f2f818560208601611859565b80840191505092915050565b6000611f478285611f0a565b9150611f538284611f0a565b91508190509392505050565b600081519050919050565b600082825260208201905092915050565b6000611f8682611f5f565b611f908185611f6a565b9350611fa0818560208601611859565b611fa981611883565b840191505092915050565b6000608082019050611fc96000830187611984565b611fd66020830186611984565b611fe36040830185611a9a565b8181036060830152611ff58184611f7b565b905095945050505050565b60008151905061200f816117ae565b92915050565b60006020828403121561202b5761202a611778565b5b600061203984828501612000565b91505092915050565b7f4e487b7100000000000000000000000000000000000000000000000000000000600052601260045260246000fd5b60006040820190506120866000830185611984565b6120936020830184611a9a565b939250505056fea2646970667358221220c23b4c703eee299f06f7e6d48907a7c02a003d5c24a9e59dbce4897fa09f060764736f6c63430008180033",
  "linkReferences": {},
  "deployedLinkReferences": {}
}